:100000000C943E000C9448000C9448000C9448005A
:100010000C9448000C9448000C9448000C94480040
:100020000C9448000C9448000C9448000C94480030
:100030000C9448000C9448000C9448000C94480020
:100040000C9448000C9448000C9448000C94480010
:100050000C9448000C9448000C9448000C94480000
:100060000C9448000C9448000C9448000C944800F0
:100070000C9448000C9448000C94480011241FBEB6
:10008000CFEFD8E0DEBFCDBF0E94AF000C94B5002B
:100090000C9400001098119808959C0190E080E065
:1000A000821793075CF44FEF59E668E141505040E6
:1000B0006040E1F700C000000196F2CF0895813062
:1000C00049F0823021F0811107C00C944A00109849
:1000D000119A08951198109A08950C944A0082E09C
:1000E0000E945F0081E090E00C944D0081E00E944E
:1000F0005F0081E090E00C944D00CF93DF93C2E36A
:10010000D0E081E00E945F008FE19EE40197F1F76B
:1001100000C0000082E00E945F008FE19EE4019732
:10012000F1F700C00000219761F7DF91CF910895AA
:1001300089B182FB882780F908950E94980088235E
:1001400041F08FE19EE40197F1F700C000000C94AC
:10015000980080E008950E946F000C9476008FEF65
:0E01600081B91AB80E947D00FDCFF894FFCF40
:00000001FF
