:100000000C943E000C9448000C9448000C9448005A
:100010000C9448000C9448000C9448000C94480040
:100020000C9448000C9448000C9448000C94480030
:100030000C9448000C9448000C9448000C94480020
:100040000C9448000C9448000C9448000C94480010
:100050000C9448000C9448000C9448000C94480000
:100060000C9448000C9448000C9448000C944800F0
:100070000C9448000C9448000C94480011241FBEB6
:10008000CFEFD8E0DEBFCDBF0E94B1010C940104D8
:100090000C94000081B1836081B9519808958F92CA
:1000A0009F92AF92BF92CF92DF92EF92FF920F9307
:1000B0001F93CF93DF9300D000D000D0CDB7DEB731
:1000C0000E94C9028B018E839D832BEA3AEA4AE2A1
:1000D00050E469831A838B839C8369817A818B8145
:1000E0009C810E9480036B017C0120E030E040E8AD
:1000F0005FE36983DA828B83FC8269817A818B81F9
:100100009C810E94230287FDD6C098014E815D81AB
:1001100009831A838E818B838D818C8369817A8197
:100120008B819C810E94B7014B015C0120E03FEF75
:100130004FE757E469839A828B83BC8269817A8115
:100140008B819C810E947B0318160CF086C020E0F6
:1001500030E04AE754E409831A838E818B838D81D2
:100160008C8369817A818B819C810E9428026B013A
:100170007C0120E030E04AEF54E46983DA828B832B
:10018000FC8269817A818B819C810E9480038B0132
:100190008E839D8320E030E040E85FE369831A832B
:1001A0008B839C8369817A818B819C810E9423024D
:1001B00087FD50C020E03FEF4FE757E469817A8127
:1001C0008B819C810E947B03181614F520E030E09F
:1001D00040E251E4C982DA82EB82FC8269817A8151
:1001E0008B819C810E94800369837A838B839C83AB
:1001F00069817A818B819C810E949A02CB0128ECD3
:1002000030E00097A1F0F9013197F1F70197F9CFAC
:1002100009831A838E818B838D818C8369817A8196
:100220008B819C810E949A02CB010197F1F726965F
:100230000FB6F894DEBF0FBECDBFDF91CF911F91F7
:100240000F91FF90EF90DF90CF90BF90AF909F9075
:100250008F90089581E090E0E8CF20E030E04FE714
:1002600053E4C982DA82EB82FC8269817A818B81D4
:100270009C810E947B0318168CF489829A82AB823F
:10028000BC8269817A818B819C810E949A026983F8
:100290007A838B839C8389819A81C7CFC982DA82D2
:1002A000EB82FC8269817A818B819C810E949A0217
:1002B0006A95F1F7BCCF61E0FBCF22B12C7F22B968
:1002C0000C944F001098119A0C944F001198109AAA
:1002D0000C944F00CF92DF92EF92FF920F931F93F7
:1002E000CF93DF9300D000D000D0CDB7DEB71E8211
:1002F0001D8288EEE82E83E0F82E10E000E093E007
:10030000C92ED12CB0E0A0E0B701CD010E9466015A
:10031000B0E0A0E0B801CD010E945D018D819E8119
:10032000B6010E94ED03892B29F491E0E91AF10846
:100330000F5F1F4FAD81BE811196BE83AD83A83B79
:10034000BB4001F726960FB6F894DEBF0FBECDBFB7
:10035000DF91CF911F910F91FF90EF90DF90CF90A1
:1003600008950E944A000E946A01FDCF5058BB27A1
:10037000AA270E94CE010C9441030E94330338F057
:100380000E943A0320F039F49F3F19F426F40C94AC
:1003900030030EF4E095E7FB0C942A03E92F0E944A
:1003A000520358F3BA17620773078407950720F0C2
:1003B00079F4A6F50C9474030EF4E0950B2EBA2F85
:1003C000A02D0B01B90190010C01CA01A00111245B
:1003D000FF27591B99F0593F50F4503E68F11A1607
:1003E000F040A22F232F342F4427585FF3CF469598
:1003F00037952795A795F0405395C9F77EF41F16BA
:10040000BA0B620B730B840BBAF09150A1F0FF0F83
:10041000BB1F661F771F881FC2F70EC0BA0F621F6F
:10042000731F841F48F4879577956795B795F7955F
:100430009E3F08F0B0CF9395880F08F09927EE0FF4
:100440009795879508950E94060308F481E0089522
:100450000E943C020C9441030E943A0358F00E940F
:10046000330340F029F45F3F29F00C942A03511123
:100470000C9475030C9430030E94520368F3992383
:10048000B1F3552391F3951B550BBB27AA27621790
:100490007307840738F09F5F5F4F220F331F441F9D
:1004A000AA1FA9F335D00E2E3AF0E0E832D09150D1
:1004B0005040E695001CCAF72BD0FE2F29D0660FBE
:1004C000771F881FBB1F261737074807AB07B0E801
:1004D00009F0BB0B802DBF01FF2793585F4F3AF007
:1004E0009E3F510578F00C942A030C9475035F3FEE
:1004F000E4F3983ED4F3869577956795B795F7958D
:100500009F5FC9F7880F911D9695879597F9089574
:10051000E1E0660F771F881FBB1F62177307840710
:10052000BA0720F0621B730B840BBA0BEE1F88F71F
:10053000E09508950E945A0388F09F5798F0B92FCC
:100540009927B751B0F0E1F0660F771F881F991F08
:100550001AF0BA95C9F714C0B13091F00E94740333
:10056000B1E008950C947403672F782F8827B85F43
:1005700039F0B93FCCF3869577956795B395D9F760
:100580003EF490958095709561957F4F8F4F9F4F6A
:100590000895E89409C097FB3EF490958095709576
:1005A00061957F4F8F4F9F4F9923A9F0F92F96E9BF
:1005B000BB279395F695879577956795B795F11134
:1005C000F8CFFAF4BB0F11F460FF1BC06F5F7F4FD1
:1005D0008F4F9F4F16C0882311F096E911C07723E3
:1005E00021F09EE8872F762F05C0662371F096E8EC
:1005F000862F70E060E02AF09A95660F771F881FBB
:10060000DAF7880F9695879597F90895990F00085E
:10061000550FAA0BE0E8FEEF16161706E807F907D4
:10062000C0F012161306E407F50798F0621B730B6F
:10063000840B950B39F40A2661F0232B242B252BF0
:1006400021F408950A2609F4A140A6958FEF811D93
:10065000811D089597F99F6780E870E060E0089534
:100660009FEF80EC089500240A94161617061806CA
:100670000906089500240A941216130614060506A6
:100680000895092E0394000C11F4882352F0BB0F37
:1006900040F4BF2B11F460FF04C06F5F7F4F8F4F9A
:1006A0009F4F089557FD9058440F551F59F05F3FD5
:1006B00071F04795880F97FB991F61F09F3F79F084
:1006C00087950895121613061406551FF2CF469506
:1006D000F1DF08C0161617061806991FF1CF869588
:1006E0007105610508940895E894BB27662777276C
:1006F000CB0197F908950E94060308F48FEF08953F
:100700000E9493030C9441030E94330338F00E942B
:100710003A0320F0952311F00C942A030C94300333
:1007200011240C9475030E94520370F3959FC1F33A
:10073000950F50E0551F629FF001729FBB27F00D8F
:10074000B11D639FAA27F00DB11DAA1F649F6627E4
:10075000B00DA11D661F829F2227B00DA11D621F33
:10076000739FB00DA11D621F839FA00D611D221FED
:10077000749F3327A00D611D231F849F600D211DD1
:10078000822F762F6A2F11249F5750409AF0F1F054
:1007900088234AF0EE0FFF1FBB1F661F771F881FBD
:1007A00091505040A9F79E3F510580F00C942A03C8
:1007B0000C9475035F3FE4F3983ED4F386957795E8
:1007C0006795B795F795E7959F5FC1F7FE2B880F63
:1007D000911D9695879597F90895AA1BBB1B51E12A
:1007E00007C0AA1FBB1FA617B70710F0A61BB70BA1
:1007F000881F991F5A95A9F780959095BC01CD0146
:060800000895F894FFCFFB
:00000001FF
